:020000040040BA
:100000008034002069014000650140006501400026
:1000100065014000650140006501400000000000EE
:10002000000000000000000000000000650140002A
:100030006501400000000000650140003102400001
:100040006501400065014000650140006501400018
:100050006501400065014000650140006501400008
:1000600065014000650140006501400065014000F8
:1000700065014000650140006501400065014000E8
:1000800065014000650140006501400065014000D8
:1000900065014000650140006501400065014000C8
:1000A00065014000650140006501400065014000B8
:1000B00065014000650140006501400065014000A8
:1000C0006501400065014000650140006501400098
:1000D0006501400065014000650140006501400088
:1000E0006501400065014000650140006501400078
:1000F000650140006501400010B5054C237833B917
:10010000044B13B10448AFF300800123237010BDEA
:100110003404002000000000600440000C4B43B198
:100120000C480D4910B5AFF300800C48036823B9A3
:1001300010BD0A48036833B97047094B002BF7D04C
:10014000BDE810401847064B002BF5D0184700BFFC
:1001500000000000600440003804002060044000FB
:1001600000000000FEE7000000B583B0254B264AE2
:100170009A4210D0254B234A9A420CD2013B9B1A3B
:1001800023F00303043313441F4951F8040B42F8CE
:10019000040B9A42F9D11E4B1E4A9A420AD2013BE5
:1001A0009B1A23F0030304331344002142F8041B79
:1001B0009342FBD1184A194B23F07F039360EFF36E
:1001C0001083B3FA83F35B09019372B6BFF35F8FB9
:1001D0000022134B1A700199124A136843F47003FA
:1001E0001360BFF34F8FBFF36F8F29B101220C4B08
:1001F0001A70BFF35F8F62B60B4B98470B4B984753
:10020000FEE700BF0000002060044000340400202E
:100210007C0400203404002000ED00E000004000D9
:100220000000002088ED00E0C90240007502400097
:100230000D4A136801331360B3F57A7F00D070471D
:100240000A4B1B685BB94FF48001094A516383F084
:100250000103064A13600022034B1A60EFE74FF4D4
:100260008001034A1163F2E7540400205004002087
:1002700000140E404FF400420E4B5A60A3F58A63FF
:100280004FF480021A615A630B4B1B680B4AA2FBA6
:1002900003239B09013BB3F1807F09D2084A5360D5
:1002A000F021084B83F82310002393600723136089
:1002B0000020704750180E4004000020D34D6210FB
:1002C00010E000E000ED00E070B50F4E0F4D761B22
:1002D000B61018BF002405D0013455F8043B9847E8
:1002E000A642F9D10A4E0B4D761B00F0A7F8B610C6
:1002F00018BF002406D0013455F8043B9847A642A5
:10030000F9D170BD70BD00BF4804400048044000F2
:100310005004400048044000024B13B1024800F072
:1003200005B8704700000000390340000023014673
:100330001A46184600F01EB838B50A4C0A4D641B20
:10034000A4100AD004F18043013B05EB8305013C76
:1003500055F804399847002CF9D1BDE8384000F031
:1003600077B800BF600440005C044000704700BFE5
:10037000704700BF2DE9F8432C4D06462868984683
:100380000F469146FFF7F2FF294B1C68D4F848311D
:10039000002B3ED05A681F2A1CDC02F1010E76B1F8
:1003A00003EB82010124C1F88890D3F888019440BE
:1003B0002043022EC3F88801C1F8088123D00232FD
:1003C000C3F804E0286843F82270FFF7D1FF00204B
:1003D000BDE8F883174B0BB34FF4C870AFF3008040
:1003E0000346D8B1D4F848210260002141600A4692
:1003F000C4F848014FF0010EC0F88811C0F88C1104
:10040000002EDCD0CCE7D3F88C110C43C3F88C4120
:10041000D5E704F5A673C4F84831BBE72868FFF7B1
:10042000A7FF4FF0FF30BDE8F88300BF3004002085
:10043000380440000000000008000020F8B500BFAC
:10044000F8BC08BC9E467047190340001D014000DF
:10045000F8B500BFF8BC08BC9E467047F9004000E4
:100460000100000000093D0000000000F40200202F
:100470005C030020C4030020000000000000000016
:10048000000000000000000000000000000000006C
:10049000000000000000000000000000000000005C
:1004A000000000000000000000000000000000004C
:1004B000000000000000000000000000000000003C
:1004C000000000000000000000000000000000002C
:1004D000000000000000000000000000000000001C
:1004E000000000000000000000000000000000000C
:1004F00000000000000000000000000000000000FC
:1005000000000000000000000000000000000000EB
:1005100001000000000000000E33CDAB34126DE688
:10052000ECDE05000B0000000000000000000000F1
:1005300000000000000000000000000000000000BB
:1005400000000000000000000000000000000000AB
:10055000000000000000000000000000000000009B
:10056000000000000000000000000000000000008B
:0408900058040020E8
:04000005004001694D
:00000001FF
